:100000000C942A000C94D6010C94FD010C9424024B
:100010000C9499020C94C0020C9447000C94470075
:100020000C9447000C9447000C944B020C94720201
:100030000C9447000C9447000C9447000C94470024
:100040000C9447000C9447000C9447000C94470014
:100050000C94470011241FBECFE5D8E0DEBFCDBF12
:1000600010E0A0E6B0E0E2EDF5E002C005900D92F0
:10007000A037B107D9F720E0A0E7B0E001C01D929A
:10008000AB39B207E1F70E94B8010C94E7020C9477
:10009000000084B3807F84BB84B3806F84BB8FEF08
:1000A00085BB08950F931F93CF93DF9340E050E0FB
:1000B0009DC035B3E0E6F0E081E090E08C01008087
:1000C00002C0000F111F0A94E2F7EC01028002C087
:1000D000CC0FDD1F0A94E2F7DC01048002C0AA0FF6
:1000E000BB1F0A94E2F7BC01068002C0660F771FAF
:1000F0000A94E2F72C2F202B2A2B262B232B25BB0F
:1001000025B3FA01EE0FFF1FE05AFF4F008002C037
:10011000880F991F0A94E2F78095822385BB60E0DF
:1001200070E05EC083B3FB01EE0FFF1FE859FF4F85
:10013000208190E0022E02C0959587950A94E2F7FF
:1001400080FD4CC083B390E0022E02C09595879548
:100150000A94E2F780FFF6CF41305105C9F024F44C
:100160004115510541F03AC042305105F1F043309C
:10017000510541F133C061157105F1F1613071052F
:10018000E9F162307105E1F16330710539F53AC08A
:1001900061157105C9F161307105C1F162307105F8
:1001A000B9F163307105D1F435C061157105A1F164
:1001B0006130710599F16230710591F1633071051B
:1001C00069F430C06115710579F16130710571F123
:1001D0006230710569F16330710561F16F5F7F4FC6
:1001E000643071050CF49ECF4F5F5F4F4430510572
:1001F0000CF45FCF81E41FC087E31DC084E31BC004
:1002000081E319C08FE317C088E315C085E313C0ED
:1002100082E311C080E30FC089E30DC086E30BC009
:1002200083E309C08DE307C08FE205C08AE203C003
:100230008DE201C08BE2DF91CF911F910F91089564
:100240008BB384608BBB83ED90E30197F1F700C023
:1002500000008BB38B7F8BBB08958AB31ABA8BB324
:1002600081608BBB8BB38D7F8BBB0E9420018AB3D7
:100270008FEF8ABB8BB38E7F8BBB0895CF93C82F34
:100280000E942D010E942D018BB39C2F969598778B
:100290008778892B8BBB8BB38C7F8BBB0E94200113
:1002A0002BB38C2F90E0880F991F880F991F880F10
:1002B000991F922F97788877892B8BBB8BB38C7F74
:1002C0008BBB0E942001CF91089581E00E943E01E6
:1002D000089587E893E10197F1F700C000008AB321
:1002E00087608ABB8BB3887F8BBB8FEF8ABB85EA25
:1002F0009EE00197F1F700C000000E94650182E0D6
:100300000E943E0188E20E943E0186E00E943E017A
:1003100080E80E943E018CE00E943E010895CF9348
:10032000C82F8BB39C2F969598778778892B8BBB9A
:100330008BB382608BBB8BB38E7F8BBB0E94200103
:100340002BB38C2F90E0880F991F880F991F880F6F
:10035000991F922F97788877892B8BBB8BB38260FC
:100360008BBB8BB38E7F8BBB0E942001CF910895F6
:100370000E9469010E94490083ED90E30197F1F723
:1003800000C000000E9452008F3319F08134D1F375
:1003900005C0109270000E946501F4CF0E948F0189
:1003A000809170008F5F80937000ECCF1F920F924E
:1003B0000FB60F9211242F933F934F935F936F9338
:1003C0007F938F939F93AF93BF93EF93FF93E091AE
:1003D0007300F09174000995FF91EF91BF91AF9177
:1003E0009F918F917F916F915F914F913F912F914D
:1003F0000F900FBE0F901F9018951F920F920FB67F
:100400000F9211242F933F934F935F936F937F939A
:100410008F939F93AF93BF93EF93FF93E0917700F8
:10042000F09178000995FF91EF91BF91AF919F9165
:100430008F917F916F915F914F913F912F910F908D
:100440000FBE0F901F9018951F920F920FB60F922C
:1004500011242F933F934F935F936F937F938F93C9
:100460009F93AF93BF93EF93FF93E0917B00F09145
:100470007C000995FF91EF91BF91AF919F918F9172
:100480007F916F915F914F913F912F910F900FBE90
:100490000F901F9018951F920F920FB60F92112474
:1004A0002F933F934F935F936F937F938F939F937C
:1004B000AF93BF93EF93FF93E0918300F09184009B
:1004C0000995FF91EF91BF91AF919F918F917F918E
:1004D0006F915F914F913F912F910F900FBE0F90B1
:1004E0001F9018951F920F920FB60F9211242F9301
:1004F0003F934F935F936F937F938F939F93AF93AC
:10050000BF93EF93FF93E0918500F09186000995EA
:10051000FF91EF91BF91AF919F918F917F916F91DB
:100520005F914F913F912F910F900FBE0F901F90B1
:1005300018951F920F920FB60F9211242F933F938D
:100540004F935F936F937F938F939F93AF93BF93DB
:10055000EF93FF93E0919700F09198000995FF9138
:10056000EF91BF91AF919F918F917F916F915F912B
:100570004F913F912F910F900FBE0F901F901895A4
:100580001F920F920FB60F9211242F933F934F9308
:100590005F936F937F938F939F93AF93BF93EF93EB
:1005A000FF93E0919900F0919A000995FF91EF91E6
:1005B000BF91AF919F918F917F916F915F914F917B
:1005C0003F912F910F900FBE0F901F901895F894A8
:0205D000FFCF5B
:1005D20004000500060007000000010002000300FD
:00000001FF
