:100000000C942A000C940A010C9431010C945801B0
:100010000C94CD010C94F4010C9447000C9447000F
:100020000C9447000C9447000C947F010C94A6019B
:100030000C9447000C9447000C9447000C94470024
:100040000C9447000C9447000C9447000C94470014
:100050000C94470011241FBECFE5D8E0DEBFCDBF12
:1000600010E0A0E6B0E0EAE3F4E002C005900D92F3
:10007000A036B107D9F720E0A0E6B0E001C01D929C
:10008000AA38B207E1F70E9449000C941B020C94B5
:10009000000041E064E081E390E00E94D40041E090
:1000A00065E081E390E00E94D40041E066E081E3F6
:1000B00090E00E94D40041E067E081E390E00E947C
:1000C000D40064E082E390E00E94FD0065E082E3FA
:1000D00090E00E94FD0066E082E390E00E94FD0057
:1000E00067E082E390E00E94FD0064E082E390E03C
:1000F0000E94F1002FE38DE093E02150804090407A
:10010000E1F700C0000064E082E390E00E94FD009F
:1001100087EA91E60197F1F700C0000065E082E30D
:1001200090E00E94F1009FE32DE083E09150204099
:100130008040E1F700C0000065E082E390E00E94AB
:10014000FD0087EA91E60197F1F700C0000066E044
:1001500082E390E00E94F1009FE32DE083E0915064
:1001600020408040E1F700C0000066E082E390E0BC
:100170000E94FD0087EA91E60197F1F700C00000B8
:1001800067E082E390E00E94F1009FEB27E289E0C4
:10019000915020408040E1F700C0000067E082E31A
:1001A00090E00E94FD00A1CF413061F421E030E0F9
:1001B00002C0220F331F6A95E2F7FC013081232B26
:1001C0002083089541110CC021E030E002C0220FCD
:1001D000331F6A95E2F72095FC01308123232083A9
:1001E000089521E030E002C0220F331F6A95E2F744
:1001F000FC013081232B2083089521E030E002C0F0
:10020000220F331F6A95E2F72095FC0130812323EA
:10021000208308951F920F920FB60F9211242F93EF
:100220003F934F935F936F937F938F939F93AF937E
:10023000BF93EF93FF93E0916200F0916300099503
:10024000FF91EF91BF91AF919F918F917F916F91AE
:100250005F914F913F912F910F900FBE0F901F9084
:1002600018951F920F920FB60F9211242F933F9360
:100270004F935F936F937F938F939F93AF93BF93AE
:10028000EF93FF93E0916600F09167000995FF916D
:10029000EF91BF91AF919F918F917F916F915F91FE
:1002A0004F913F912F910F900FBE0F901F90189577
:1002B0001F920F920FB60F9211242F933F934F93DB
:1002C0005F936F937F938F939F93AF93BF93EF93BE
:1002D000FF93E0916A00F0916B000995FF91EF9117
:1002E000BF91AF919F918F917F916F915F914F914E
:1002F0003F912F910F900FBE0F901F9018951F9256
:100300000F920FB60F9211242F933F934F935F9349
:100310006F937F938F939F93AF93BF93EF93FF93CD
:10032000E0917200F09173000995FF91EF91BF91F8
:10033000AF919F918F917F916F915F914F913F917D
:100340002F910F900FBE0F901F9018951F920F9234
:100350000FB60F9211242F933F934F935F936F9398
:100360007F938F939F93AF93BF93EF93FF93E0910E
:100370007400F09175000995FF91EF91BF91AF91D5
:100380009F918F917F916F915F914F913F912F91AD
:100390000F900FBE0F901F9018951F920F920FB6DF
:1003A0000F9211242F933F934F935F936F937F93FB
:1003B0008F939F93AF93BF93EF93FF93E09186004A
:1003C000F09187000995FF91EF91BF91AF919F91B7
:1003D0008F917F916F915F914F913F912F910F90EE
:1003E0000FBE0F901F9018951F920F920FB60F928D
:1003F00011242F933F934F935F936F937F938F932A
:100400009F93AF93BF93EF93FF93E0918800F09198
:1004100089000995FF91EF91BF91AF919F918F91C5
:100420007F916F915F914F913F912F910F900FBEF0
:0A0430000F901F901895F894FFCF6D
:00000001FF
