S00E00004472697665722E73726563AA
S11300000C942A000C9468010C948F010C94B60192
S11300100C9447000C9447000C9447000C94470040
S11300200C9447000C9447000C9447000C94470030
S11300300C9447000C9447000C9447000C94470020
S11300400C9447000C9447000C9447000C94470010
S11300500C94470011241FBECFE5D8E0DEBFCDBF0E
S113006010E0A0E6B0E0EEEBF3E002C005900D92E4
S1130070A036B107D9F720E0A0E6B0E001C01D9298
S1130080A037B207E1F70E945B000C94DD010C94E9
S1130090000065E082E390E00E94CC00089566E0F1
S11300A082E390E00E94CC00089567E082E390E050
S11300B00E94CC00089540E062E081E390E00E9459
S11300C0AF0040E063E081E390E00E94AF0040E0D5
S11300D062E087E390E00E94AF00C0E6D0E01882BF
S11300E011E0198389E490E09B838A83CE010E9406
S11300F0F400188383E089838FE490E09B838A83F0
S1130100CE010E94F40082E08883898385E590E033
S11301109B838A83CE010E94F40041E065E081E381
S113012090E00E94AF0041E066E081E390E00E942D
S1130130AF0041E067E081E390E00E94AF0065E03A
S113014082E390E00E94D80066E082E390E00E949F
S1130150D80067E082E390E00E94D800FFCF4130EE
S113016061F421E030E002C0220F331F6A95E2F708
S1130170FC013081232B2083089541110CC021E020
S113018030E002C0220F331F6A95E2F72095FC018C
S1130190308123232083089521E030E002C0220F20
S11301A0331F6A95E2F7FC013081232720830895E9
S11301B021E030E002C0220F331F6A95E2F7209558
S11301C0FC013081232320830895FC01808188234E
S11301D029F0813029F0823029F4089580E00895CF
S11301E081E0089580E00895CF93DF93EC010E94AD
S11301F0E50090E0FC01EE0FFF1FEE0FFF1FEC592E
S1130200FF4F488159816A817B8140835183628396
S113021073832FB720682FBF2081211120C02BB7F3
S113022020642BBF880F991F880F991FFC01EC597C
S1130230FF4F8181813021F485B7816085BF45C03E
S1130240811103C085B785BF40C0823021F485B7D2
S1130250826085BF3AC085B7836085BF36C02130D0
S113026001F52BB720682BBF880F991F880F991FA2
S1130270FC01EC59FF4F8181813021F485B7846002
S113028085BF23C0811103C085B785BF1EC08230DE
S113029021F485B7886085BF18C085B78C6085BF99
S11302A014C02BB720622BBF880F991F880F991F8A
S11302B0FC01EC59FF4F8181823021F484B78F7B9C
S11302C084BF03C084B7806484BFDF91CF91089555
S11302D01F920F920FB60F9211242F933F934F93B7
S11302E05F936F937F938F939F93AF93BF93EF939A
S11302F0FF93E0916600F09167000995FF91EF91FB
S1130300BF91AF919F918F917F916F915F914F9129
S11303103F912F910F900FBE0F901F9018951F9231
S11303200F920FB60F9211242F933F934F935F9325
S11303306F937F938F939F93AF93BF93EF93FF93A9
S1130340E0916A00F0916B000995FF91EF91BF91E4
S1130350AF919F918F917F916F915F914F913F9159
S11303602F910F900FBE0F901F9018951F920F9210
S11303700FB60F9211242F933F934F935F936F9374
S11303807F938F939F93AF93BF93EF93FF93E091EA
S11303906E00F0916F000995FF91EF91BF91AF91BD
S11303A09F918F917F916F915F914F913F912F9189
S11103B00F900FBE0F901F901895F894FFCF7A
S9030000FC
