:020000040800F2
:100000000010002089020008D9020008D902000867
:10001000D9020008D9020008D90200080000000037
:10002000000000000000000000000000D9020008ED
:10003000D902000800000000D9020008D902000817
:10004000D9020008D9020008D9020008D902000824
:10005000D9020008D9020008D9020008D902000814
:10006000D9020008D9020008D9020008D902000804
:10007000D9020008D9020008D9020008D9020008F4
:10008000D9020008D9020008D902000800000000C7
:10009000000000000000000000000000D90200087D
:1000A000D9020008D9020008D9020008D9020008C4
:1000B000D9020008D9020008D9020008D9020008B4
:1000C000D9020008D9020008D9020008D9020008A4
:1000D000D9020008D9020008D9020008D902000894
:1000E000D9020008D9020008D9020008D902000884
:1000F000D9020008D902000800000000000000003A
:10010000D902000800000000D9020008D902000846
:10011000D9020008D9020008D9020008D902000853
:10012000D9020008D9020008D9020008D902000843
:1001300010B5054C237833B9044B13B10448AFF321
:1001400000800123237010BD00000020000000008B
:100150002403000808B5034B1BB103490348AFF360
:10016000008008BD000000000400002024030008F7
:1001700080B400AF074B1B68064A43F004031360CA
:10018000044B1B68034A43F00803136000BFBD46DD
:1001900080BC70471810024080B400AF134B1B683E
:1001A000124A43F040031360114B1B68104A43F49A
:1001B000800313600F4B1B680E4A23F0F00313609B
:1001C0000C4B1B680B4A43F0100313600A4B1B686F
:1001D000094A23F470031360074B1B68064A43F473
:1001E0008013136000BFBD4680BC7047000801400B
:1001F00004080140000C0140040C014080B582B0AD
:1002000000AFFFF7B5FFFFF7C7FF00237B601C4B74
:100210001B681B4A43F002031360194B1B68184A02
:1002200043F400531360174B1B6803F00203002BC9
:100230000CD1134B1B68124A83F00203136000BFFA
:10024000104B1B6803F00203002BF9D00D4B1B6809
:100250005B0B03F00103012BE5D1094B1B68084A36
:1002600083F40053136000237B6002E07B6801335A
:100270007B607B6842F20F729342F7DDD3E700BFE9
:100280000C0C0140080801400D488546AFF3008082
:100290000C480D490D4A002302E0D458C4500433E1
:1002A000C4188C42F9D30A4A0A4C002301E01360B7
:1002B0000432A242FBD300F011F8FFF79FFFFEE7E4
:1002C000001000200000002000000020440300086F
:1002D000000000201C000020FEE7000070B5002692
:1002E0000C4D0D4C641BA410A64209D100F01AF865
:1002F00000260A4D0A4C641BA410A64205D170BD0D
:1003000055F8043B98470136EEE755F8043B98470B
:100310000136F2E73C0300083C0300083C030008F8
:1003200040030008F8B500BFF8BC08BC9E46704703
:0C033000F8B500BFF8BC08BC9E46704742
:04033C00550100085F
:04034000310100087F
:040000050800028964
:00000001FF
