:100000000C942A000C94DD000C9404010C942B0138
:100010000C94A0010C94C7010C9447000C94470069
:100020000C9447000C9447000C9452010C947901F5
:100030000C9447000C9447000C9447000C94470024
:100040000C9447000C9447000C9447000C94470014
:100050000C94470011241FBECFE5D8E0DEBFCDBF12
:1000600010E0A0E6B0E0E0EEF3E002C005900D92F3
:10007000A036B107D9F720E0A0E6B0E001C01D929C
:10008000AA38B207E1F70E9449000C94EE010C94E3
:10009000000041E065E081E390E00E94A70041E0BC
:1000A00066E081E390E00E94A70041E067E081E321
:1000B00090E00E94A70087EA91E60197F1F700C05F
:1000C000000065E082E390E00E94C4009FE32DE021
:1000D00083E0915020408040E1F700C0000065E0DF
:1000E00082E390E00E94D00087EA91E60197F1F761
:1000F00000C0000066E082E390E00E94C4009FE33D
:100100002DE083E0915020408040E1F700C00000E6
:1001100066E082E390E00E94D00087EA91E60197D2
:10012000F1F700C0000067E082E390E00E94C400A5
:100130009FE32DE083E0915020408040E1F700C034
:10014000000067E082E390E00E94D000B4CF41302D
:1001500061F421E030E002C0220F331F6A95E2F71C
:10016000FC013081232B2083089541110CC021E034
:1001700030E002C0220F331F6A95E2F72095FC01A0
:10018000308123232083089521E030E002C0220F34
:10019000331F6A95E2F7FC013081232B20830895F9
:1001A00021E030E002C0220F331F6A95E2F720956C
:1001B000FC0130812323208308951F920F920FB6F4
:1001C0000F9211242F933F934F935F936F937F93DD
:1001D0008F939F93AF93BF93EF93FF93E091620050
:1001E000F09163000995FF91EF91BF91AF919F91BD
:1001F0008F917F916F915F914F913F912F910F90D0
:100200000FBE0F901F9018951F920F920FB60F926E
:1002100011242F933F934F935F936F937F938F930B
:100220009F93AF93BF93EF93FF93E0916600F0919C
:1002300067000995FF91EF91BF91AF919F918F91C9
:100240007F916F915F914F913F912F910F900FBED2
:100250000F901F9018951F920F920FB60F921124B6
:100260002F933F934F935F936F937F938F939F93BE
:10027000AF93BF93EF93FF93E0916A00F0916B000F
:100280000995FF91EF91BF91AF919F918F917F91D0
:100290006F915F914F913F912F910F900FBE0F90F3
:1002A0001F9018951F920F920FB60F9211242F9343
:1002B0003F934F935F936F937F938F939F93AF93EE
:1002C000BF93EF93FF93E0917200F0917300099553
:1002D000FF91EF91BF91AF919F918F917F916F911E
:1002E0005F914F913F912F910F900FBE0F901F90F4
:1002F00018951F920F920FB60F9211242F933F93D0
:100300004F935F936F937F938F939F93AF93BF931D
:10031000EF93FF93E0917400F09175000995FF91C0
:10032000EF91BF91AF919F918F917F916F915F916D
:100330004F913F912F910F900FBE0F901F901895E6
:100340001F920F920FB60F9211242F933F934F934A
:100350005F936F937F938F939F93AF93BF93EF932D
:10036000FF93E0918600F09187000995FF91EF914E
:10037000BF91AF919F918F917F916F915F914F91BD
:100380003F912F910F900FBE0F901F9018951F92C5
:100390000F920FB60F9211242F933F934F935F93B9
:1003A0006F937F938F939F93AF93BF93EF93FF933D
:1003B000E0918800F09189000995FF91EF91BF913C
:1003C000AF919F918F917F916F915F914F913F91ED
:1003D0002F910F900FBE0F901F901895F894FFCF9C
:00000001FF
