:100000000C942A000C940E010C9435010C945C01A4
:100010000C94D1010C94F8010C9447000C94470007
:100020000C9447000C9447000C9483010C94AA0193
:100030000C9447000C9447000C9447000C94470024
:100040000C9447000C9447000C9447000C94470014
:100050000C94470011241FBECFE5D8E0DEBFCDBF12
:1000600010E0A0E6B0E0E2E4F4E002C005900D92FA
:10007000A036B107D9F720E0A0E6B0E001C01D929C
:10008000AB38B207E1F70E9449000C941F020C94B0
:10009000000040E060E081E390E00E94CE0041E09B
:1000A00065E081E390E00E94CE0041E066E081E3FC
:1000B00090E00E94CE0041E067E081E390E00E9482
:1000C000CE0065E082E390E00E94010166E082E3F9
:1000D00090E00E94010167E082E390E00E9401014C
:1000E00060E080E390E00E94EB008823C9F38091F8
:1000F0006000811119C065E082E390E00E94F50084
:100100002FE38DE093E0215080409040E1F700C064
:10011000000065E082E390E00E94010180916000B0
:100120008F5F8093600032C08130C9F466E082E363
:1001300090E00E94F5002FE38DE093E02150804095
:100140009040E1F700C0000066E082E390E00E948A
:100150000101809160008F5F8093600017C0823042
:10016000A9F467E082E390E00E94F5002FE38DE0C0
:1001700093E0215080409040E1F700C0000067E02C
:1001800082E390E00E9401011092600060E080E351
:1001900090E00E94EB008111F9CFA2CF413061F4D1
:1001A00021E030E002C0220F331F6A95E2F7FC0124
:1001B0003081232B2083089541110CC021E030E0D1
:1001C00002C0220F331F6A95E2F72095FC013081AF
:1001D000232320830895FC01808190E002C095953F
:1001E00087956A95E2F78170089521E030E002C0BA
:1001F000220F331F6A95E2F7FC013081232B208305
:10020000089521E030E002C0220F331F6A95E2F723
:100210002095FC0130812323208308951F920F92A3
:100220000FB60F9211242F933F934F935F936F93C9
:100230007F938F939F93AF93BF93EF93FF93E0913F
:100240006300F09164000995FF91EF91BF91AF9128
:100250009F918F917F916F915F914F913F912F91DE
:100260000F900FBE0F901F9018951F920F920FB610
:100270000F9211242F933F934F935F936F937F932C
:100280008F939F93AF93BF93EF93FF93E09167009A
:10029000F09168000995FF91EF91BF91AF919F9107
:1002A0008F917F916F915F914F913F912F910F901F
:1002B0000FBE0F901F9018951F920F920FB60F92BE
:1002C00011242F933F934F935F936F937F938F935B
:1002D0009F93AF93BF93EF93FF93E0916B00F091E7
:1002E0006C000995FF91EF91BF91AF919F918F9114
:1002F0007F916F915F914F913F912F910F900FBE22
:100300000F901F9018951F920F920FB60F92112405
:100310002F933F934F935F936F937F938F939F930D
:10032000AF93BF93EF93FF93E0917300F09174004C
:100330000995FF91EF91BF91AF919F918F917F911F
:100340006F915F914F913F912F910F900FBE0F9042
:100350001F9018951F920F920FB60F9211242F9392
:100360003F934F935F936F937F938F939F93AF933D
:10037000BF93EF93FF93E0917500F091760009959C
:10038000FF91EF91BF91AF919F918F917F916F916D
:100390005F914F913F912F910F900FBE0F901F9043
:1003A00018951F920F920FB60F9211242F933F931F
:1003B0004F935F936F937F938F939F93AF93BF936D
:1003C000EF93FF93E0918700F09188000995FF91EA
:1003D000EF91BF91AF919F918F917F916F915F91BD
:1003E0004F913F912F910F900FBE0F901F90189536
:1003F0001F920F920FB60F9211242F933F934F939A
:100400005F936F937F938F939F93AF93BF93EF937C
:10041000FF93E0918900F0918A000995FF91EF9197
:10042000BF91AF919F918F917F916F915F914F910C
:100430003F912F910F900FBE0F901F901895F89439
:02044000FFCFEC
:00000001FF
