:100000000C942A000C94F10A0C941E0B0C944B0BCC
:100010000C944C130C9479130C9447000C944700E7
:100020000C9447000C9447000C94F2120C941F138C
:100030000C94800F0C944E160C947B160C94A816FE
:100040000C9447000C9447000C9447000C94470014
:100050000C94470011241FBECFE5D8E0DEBFCDBF12
:1000600011E0A0E6B0E0ECEAF1E402C005900D92E8
:10007000AC37B107D9F711E0ACE7B1E001C01D9290
:10008000A23EB107E1F70E94DF160C94D4200C9435
:100090000000DF93CF93CDB7DEB727970FB6F89464
:1000A000DEBF0FBECDBF9A83898389819A8125E8FF
:1000B00031E03C832B839E838D8336E03F83ED814B
:1000C000FE8100802D813E812F5F3F4F3E832D8337
:1000D000EB81FC8100822B813C812F5F3F4F3C8371
:1000E0002B833F8131503F838F81882341F780915B
:1000F0008501909186012091870130918801B90195
:100100000E949E0727960FB6F894DEBF0FBECDBFA4
:10011000CF91DF910895DF93CF93CDB7DEB70E94E3
:10012000F207CF91DF910895DF93CF9300D0CDB741
:10013000DEB79A8389838091890190918A010E9418
:1001400002089093840180938301809183019091B0
:1001500084010F900F90CF91DF910895DF93CF939B
:1001600000D000D0CDB7DEB79C838B83809189010E
:1001700090918A010E9402089093840180938301E8
:100180008091830190918401CC01A0E0B0E0BC019A
:10019000CD010E94581BDC01CB01BC01CD0120E048
:1001A00030E040EA50E40E94CE18DC01CB01BC01F3
:1001B000CD0120E030E04AE754E40E94CE18DC0193
:1001C000CB01BC01CD0120E030E040E854E40E94C6
:1001D000C819DC01CB01BC01CD010E94F816DC017D
:1001E000CB0180938B0190938C01A0938D01B093F0
:1001F0008E0180918B0190918C01A0918D01B09125
:100200008E01845F9240A040B040BC01CD010E94AD
:10021000581BDC01CB01BC01CD0128EB3EE14DEFC9
:1002200051E40E94C819DC01CB01BC01CD010E9440
:10023000F816DC01CB019A83898389819A81CC01EC
:10024000A0E0B0E0BC01CD010F900F900F900F9097
:10025000CF91DF910895DF93CF93CDB7DEB7A4E3BD
:10026000B0E0E4E3F0E08081807F8C93A4E3B0E031
:10027000E4E3F0E08081806F8C93E5E3F0E08FEFC2
:100280008083CF91DF910895DF93CF93CDB7DEB711
:1002900027970FB6F894DEBF0FBECDBF1C821B821E
:1002A00037C1A5E3B0E0E5E3F0E08081582F20916D
:1002B00068003091690081E090E002C0880F991FCA
:1002C0002A95E2F7482F20916A0030916B0081E077
:1002D00090E002C0880F991F2A95E2F7482B2091E1
:1002E0006C0030916D0081E090E002C0880F991F92
:1002F0002A95E2F7482B20916E0030916F0081E043
:1003000090E002C0880F991F2A95E2F7842B852B75
:100310008C93A5E3B0E0E5E3F0E08081482F8B818A
:100320009C81880F991FFC01E859FF4F2081318182
:1003300081E090E0022E02C0880F991F0A94E2F734
:10034000809584238C931A821982D7C0E3E3F0E06E
:100350008081282F30E089819A81880F991FFC01C4
:10036000E05AFF4F80819181A90102C055954795C0
:100370008A95E2F7CA0181709070009709F0B8C0C1
:10038000E3E3F0E08081282F30E089819A81880FB3
:10039000991FFC01E05AFF4F80819181A90102C0A1
:1003A000559547958A95E2F7CA018170907000973C
:1003B00039F38B819C819F838E834E815F81413095
:1003C0005105C1F18E819F818230910534F44E81B7
:1003D0005F814115510571F08BC08E819F81823004
:1003E000910509F447C04E815F814330510509F4FE
:1003F00060C07EC089819A81009719F457E35D83BC
:100400008FC089819A818130910519F484E38D83AD
:1004100087C089819A818230910519F491E39D8387
:100420007FC089819A818330910509F061C04FE3D3
:100430004D8376C089819A81009719F458E35D83D2
:100440006FC089819A818130910519F485E38D838C
:1004500067C089819A818230910519F492E39D8366
:100460005FC089819A818330910509F041C040E3E2
:100470004D8356C089819A81009719F459E35D83B1
:100480004FC089819A818130910519F486E38D836B
:1004900047C089819A818230910519F493E39D8345
:1004A0003FC089819A818330910511F54DE34D83D9
:1004B00037C089819A81009719F45FE25D8330C06B
:1004C00089819A818130910519F48AE28D8328C04F
:1004D00089819A818230910519F49DE29D8320C023
:1004E00089819A818330910519F44BE24D8318C0BC
:1004F00089819A8101969A83898389819A8184303E
:1005000091050CF423CF8B819C8101969C838B8376
:100510008B819C81843091050CF4C3CE51E45D83C2
:100520008D8127960FB6F894DEBF0FBECDBFCF9159
:10053000DF910895DF93CF93CDB7DEB72E970FB637
:10054000F894DEBF0FBECDBFA8E3B0E0E8E3F0E073
:10055000808188608C9380E090E0A8E4B2E48B878F
:100560009C87AD87BE876B857C858D859E8520E0C9
:1005700030E04AE753E40E94CE18DC01CB018F83C0
:100580009887A987BA876F81788589859A8520E0C1
:1005900030E040E85FE30E94D41A88232CF481E025
:1005A00090E09E838D833FC06F81788589859A8591
:1005B00020E03FEF4FE757E40E94741A18164CF5FD
:1005C0006B857C858D859E8520E030E040E251E49E
:1005D0000E94CE18DC01CB01BC01CD010E94F816AF
:1005E000DC01CB019E838D830FC089E190E09C8369
:1005F0008B838B819C810197F1F79C838B838D8109
:100600009E8101979E838D838D819E81009769F7DE
:1006100014C06F81788589859A850E94F816DC015F
:10062000CB019E838D838D819E819A83898389816D
:100630009A810197F1F79A838983A8E3B0E0E8E310
:10064000F0E08081877F8C932E960FB6F894DEBF02
:100650000FBECDBFCF91DF910895DF93CF9300D030
:10066000CDB7DEB7EAE3F0E08081EAE3F0E01082A4
:10067000A8E3B0E0E8E3F0E0808184608C93A8E335
:10068000B0E0E8E3F0E080818D7F8C930E949A02D5
:10069000EAE3F0E08081EAE3F0E08FEF8083A8E313
:1006A000B0E0E8E3F0E080818B7F8C930F900F90B7
:1006B000CF91DF910895DF93CF930F92CDB7DEB73F
:1006C00089830E942D030E942D03ABE3B0E0EBE38E
:1006D000F0E08081982F9778898186958877892B9B
:1006E0008C93A8E3B0E0E8E3F0E08081897F8C930D
:1006F0000E949A02ABE3B0E0EBE3F0E08081282FA8
:1007000027788981882F90E0880F991F880F991F7B
:10071000880F991F8877822B8C93A8E3B0E0E8E3D9
:10072000F0E08081897F8C930E949A020F90CF9194
:10073000DF910895DF93CF93CDB7DEB781E00E94BC
:100740005B03CF91DF910895DF93CF93CDB7DEB7F1
:100750006C970FB6F894DEBF0FBECDBF80E090E07F
:10076000A0EAB1E4898F9A8FAB8FBC8F698D7A8DA7
:100770008B8D9C8D20E030E04AE753E40E94CE1838
:10078000DC01CB018D8B9E8BAF8BB88F6D897E8901
:100790008F89988D20E030E040E85FE30E94D41A12
:1007A00088232CF481E090E09C8B8B8B3FC06D897B
:1007B0007E898F89988D20E03FEF4FE757E40E94B4
:1007C000741A18164CF5698D7A8D8B8D9C8D20E0EE
:1007D00030E040E251E40E94CE18DC01CB01BC01C4
:1007E000CD010E94F816DC01CB019C8B8B8B0FC0D6
:1007F00089E190E09A8B898B89899A890197F1F731
:100800009A8B898B8B899C8901979C8B8B8B8B898D
:100810009C89009769F714C06D897E898F89988DAE
:100820000E94F816DC01CB019C8B8B8B8B899C89F9
:10083000988B8F878F8598890197F1F7988B8F8791
:10084000A7E3B0E0E7E3F0E080818E608C93A8E35B
:10085000B0E0E8E3F0E08081817F8C93EAE3F0E0B0
:100860008FEF808380E090E0A0E7B1E48B879C87E6
:10087000AD87BE876B857C858D859E8520E030E0C9
:100880004AE753E40E94CE18DC01CB018F8398879E
:10089000A987BA876F81788589859A8520E030E0BD
:1008A00040E85FE30E94D41A88232CF481E090E0B2
:1008B0009E838D833FC06F81788589859A8520E0EE
:1008C0003FEF4FE757E40E94741A18164CF56B85FA
:1008D0007C858D859E8520E030E040E251E40E94D9
:1008E000CE18DC01CB01BC01CD010E94F816DC0161
:1008F000CB019E838D830FC089E190E09C838B8325
:100900008B819C810197F1F79C838B838D819E81E4
:1009100001979E838D838D819E81009769F714C016
:100920006F81788589859A850E94F816DC01CB0154
:100930009E838D838D819E819A83898389819A810B
:100940000197F1F79A8389830E949A0382E00E94BB
:100950005B0388E20E945B0386E00E945B0380E801
:100960000E945B038CE00E945B036C960FB6F894C8
:10097000DEBF0FBECDBFCF91DF910895DF93CF9340
:100980000F92CDB7DEB78983ABE3B0E0EBE3F0E0E5
:100990008081982F9778898186958877892B8C9389
:1009A000A8E3B0E0E8E3F0E0808182608C93A8E304
:1009B000B0E0E8E3F0E080818B7F8C930E949A02A4
:1009C000ABE3B0E0EBE3F0E08081282F277889816A
:1009D000882F90E0880F991F880F991F880F991F03
:1009E0008877822B8C93A8E3B0E0E8E3F0E0808185
:1009F00082608C93A8E3B0E0E8E3F0E080818B7F35
:100A00008C930E949A020F90CF91DF910895DF930B
:100A1000CF9300D0CDB7DEB789836A8389818230D6
:100A200041F48A81803178F48A8180540E945B038A
:100A30000AC08981813039F48A81803120F48A8129
:100A400080580E945B030F900F90CF91DF91089523
:100A5000DF93CF9300D000D0CDB7DEB79C838B83DC
:100A60001A82198228C0EB81FC818081282F8B811A
:100A70009C8101969C838B83822F0E94BE04898176
:100A80009A8101969A83898389819A81803191051F
:100A900029F482E060E00E9407050DC089819A81F7
:100AA0008032910541F40E949A0381E060E00E9447
:100AB00007051A821982EB81FC81808118169CF24D
:100AC0000F900F900F900F90CF91DF910895DF93CB
:100AD000CF9300D000D0CDB7DEB79B838A836C83E1
:100AE00080E40E945B0319820EC08981282F30E0C8
:100AF0008A819B81FC01E20FF31F80810E94BE046A
:100B000089818F5F89838981883078F381E06C8166
:100B10000E94070580E00E94BE040F900F900F9086
:100B20000F90CF91DF910895DF93CF93CDB7DEB7CC
:100B300068970FB6F894DEBF0FBECDBF6D8B7E8B6E
:100B40008F8B988F8DB79EB708970FB6F8949EBF7E
:100B50000FBE8DBFEDB7FEB73196CE0101969183E2
:100B6000808380E790E0938382838D899E89AF891B
:100B7000B88D84839583A683B7830E94331E8DB777
:100B80009EB708960FB6F8949EBF0FBE8DBFCE01DC
:100B900001960E94280568960FB6F894DEBF0FBE36
:100BA000CDBFCF91DF910895DF93CF93CDB7DEB75F
:100BB00027970FB6F894DEBF0FBECDBF9A83898307
:100BC00089819A812FE831E03C832B839E838D833A
:100BD00036E03F83ED81FE8100802D813E812F5FD5
:100BE0003F4F3E832D83EB81FC8100822B813C8132
:100BF0002F5F3F4F3C832B833F8131503F838F8159
:100C0000882341F780918F0190919001209191016B
:100C100030919201B9010E949E0727960FB6F89471
:100C2000DEBF0FBECDBFCF91DF910895DF93CF938D
:100C3000CDB7DEB70E94F207CF91DF910895DF9321
:100C4000CF9300D0CDB7DEB79A838983809193018B
:100C5000909194010E9402089093840180938301F3
:100C600080918301909184010F900F90CF91DF913B
:100C70000895DF93CF93CDB7DEB727970FB6F894DB
:100C8000DEBF0FBECDBF9A83898389819A8125E912
:100C900031E03C832B839E838D8336E03F83ED815F
:100CA000FE8100802D813E812F5F3F4F3E832D834B
:100CB000EB81FC8100822B813C812F5F3F4F3C8385
:100CC0002B833F8131503F838F81882341F780916F
:100CD0009501909196012091970130919801B90169
:100CE0000E949E0727960FB6F894DEBF0FBECDBFB9
:100CF000CF91DF910895DF93CF93CDB7DEB70E94F8
:100D0000F207CF91DF910895DF93CF9300D0CDB755
:100D1000DEB79A8389838091990190919A010E940C
:100D200002089093840180938301809183019091C4
:100D300084010F900F90CF91DF910895DF93CF93AF
:100D400000D0CDB7DEB79A838983809199019091C5
:100D50009A010E94020890938401809383018091FC
:100D6000830190918401CC01A0E0B0E0BC01CD01F1
:100D70000E94581BDC01CB01BC01CD0120E030E01A
:100D800040EA50E40E94CE18DC01CB01BC01CD0149
:100D900020E030E048EC52E40E94CE18DC01CB01A8
:100DA000BC01CD0120E030E040E854E40E94C819C5
:100DB000DC01CB01BC01CD010E94F816DC01CB01A6
:100DC00080938B0190938C01A0938D01B0938E0141
:100DD00080918B0190918C01A0918D01B0918E0139
:100DE000BC01CD010F900F90CF91DF910895DF935B
:100DF000CF93CDB7DEB727970FB6F894DEBF0FBEFF
:100E0000CDBF9A83898389819A812BE931E03C8324
:100E10002B839E838D8336E03F83ED81FE810080AE
:100E20002D813E812F5F3F4F3E832D83EB81FC81DF
:100E300000822B813C812F5F3F4F3C832B833F817E
:100E400031503F838F81882341F780919B0190919E
:100E50009C0120919D0130919E01B9010E949E0745
:100E600027960FB6F894DEBF0FBECDBFCF91DF91AE
:100E70000895DF93CF93CDB7DEB70E94F207CF91ED
:100E8000DF910895DF93CF9300D0CDB7DEB79A837B
:100E9000898380919F019091A0010E940208909304
:100EA00084018093830180918301909184010F904C
:100EB0000F90CF91DF910895DF93CF9300D0CDB7FE
:100EC000DEB79A83898380919F019091A0010E944F
:100ED0000208909384018093830180918301909113
:100EE00084018C52914020E931E0B9010E94C61D75
:100EF000CB019C0184E690E0AC01249FC001259FBA
:100F0000900D349F900D1124CC01A0E0B0E08093AF
:100F10008B0190938C01A0938D01B0938E018091F1
:100F20008B0190918C01A0918D01B0918E01BC013B
:100F3000CD010F900F90CF91DF910895DF93CF9364
:100F400000D000D000D0CDB7DEB79A8389837C83F0
:100F50006B8389819A819E838D838D819E8181306F
:100F6000910591F08D819E818130910530F08D81C8
:100F70009E818230910581F016C0E7E2F0E0A7E2A1
:100F8000B0E08C9180830FC0A7E2B0E0E7E2F0E030
:100F9000808180648C9307C0A7E2B0E0E7E2F0E0D4
:100FA0008081806C8C93A6E2B0E0E6E2F0E0808184
:100FB000887F8C93A6E2B0E0E6E2F0E090818B813E
:100FC000892B8C93A6E2B0E0E6E2F0E080818068B5
:100FD0008C9326960FB6F894DEBF0FBECDBFCF918F
:100FE000DF910895DF93CF93CDB7DEB7E7E2F0E06E
:100FF0001082E6E2F0E01082E6E2F0E01082CF91AB
:10100000DF910895DF93CF9300D000D0CDB7DEB746
:101010009C838B83A7E2B0E0E7E2F0E08081807EF2
:101020008C93A7E2B0E0E7E2F0E090818B81892B1E
:101030008C93A6E2B0E0E6E2F0E0808180648C93DD
:10104000E6E2F0E080818295869586958370882F10
:1010500090E081709070882399F789819A818070DF
:101060009A838983E4E2F0E08081282F30E089814F
:101070009A81822B932B9A838983E5E2F0E0808129
:10108000882F90E0982F88279C0189819A81822B54
:10109000932B9A83898389819A810F900F900F9067
:1010A0000F90CF91DF910895DF93CF9300D00F92EF
:1010B000CDB7DEB79A8389836B838B81813029F426
:1010C000E981FA818FEF808306C08B81882319F430
:1010D000E981FA8110820F900F900F90CF91DF91EC
:1010E0000895DF93CF9300D000D0CDB7DEB79A83B9
:1010F00089836B834C838C818130A1F4E981FA81EF
:101100008081482F8B81282F30E081E090E0022EF3
:1011100002C0880F991F0A94E2F7842BE981FA81B3
:10112000808317C08C818823A1F4E981FA818081B2
:10113000482F8B81282F30E081E090E0022E02C002
:10114000880F991F0A94E2F780958423E981FA8138
:1011500080830F900F900F900F90CF91DF910895A3
:10116000DF93CF9300D0CDB7DEB79A838983E9812F
:10117000FA8180810F900F90CF91DF910895DF93D6
:10118000CF9300D000D0CDB7DEB79B838A836C832A
:10119000EA81FB818081282F30E08C81882F90E0CC
:1011A000A90102C0559547958A95E2F7CA01817059
:1011B000898389810F900F900F900F90CF91DF91CD
:1011C0000895DF93CF9300D0CDB7DEB79A8389839C
:1011D000E981FA818FEF80830F900F90CF91DF919B
:1011E0000895DF93CF9300D00F92CDB7DEB79A83E7
:1011F00089836B83E981FA818081482F8B81282F35
:1012000030E081E090E0022E02C0880F991F0A941E
:10121000E2F7842BE981FA8180830F900F900F9081
:10122000CF91DF910895DF93CF9300D00F92CDB788
:10123000DEB79A8389836B83E981FA818081482FA5
:101240008B81282F30E081E090E0022E02C0880FD1
:10125000991F0A94E2F78427E981FA8180830F902D
:101260000F900F90CF91DF910895DF93CF9300D02F
:10127000CDB7DEB79A838983E981FA8110820F9016
:101280000F90CF91DF910895DF93CF9300D00F920D
:10129000CDB7DEB79A8389836B83E981FA81808138
:1012A000482F8B81282F30E081E090E0022E02C091
:1012B000880F991F0A94E2F780958423E981FA81C7
:1012C00080830F900F900F90CF91DF910895DF935F
:1012D000CF9300D000D0CDB7DEB79B838A83EA815D
:1012E000FB8180819181009721F4198289818C830F
:1012F0001BC0EA81FB81808191818130910529F4B5
:1013000081E0898389818C830FC0EA81FB818081A0
:1013100091818230910529F482E0898389818C83CF
:1013200003C0198289818C838C810F900F900F905C
:101330000F90CF91DF910895DF93CF93CDB7DEB7B4
:1013400028970FB6F894DEBF0FBECDBF9B838A836C
:101350008A819B810E94670989838981282F30E0D7
:10136000C901880F991F820F931F880F991F8F55EE
:101370009E4F2A813B819D838C833F832E8386E011
:101380008887EE81FF8100808E819F8101969F83F7
:101390008E83EC81FD8100828C819D8101969D83ED
:1013A0008C83988591509887E885EE2351F7AFE5B7
:1013B000B0E0EFE5F0E0808180688C938981282F90
:1013C00030E0C901880F991F820F931F880F991F62
:1013D000FC01EF55FE4F80819181009709F05EC0BE
:1013E000ABE5B0E0EBE5F0E0808180648C9389812F
:1013F000282F30E0C901880F991F820F931F019693
:10140000880F991FFC01EF55FE4F8081918181303B
:10141000910541F4A5E5B0E0E5E5F0E0808181606B
:101420008C93D6C08981282F30E0C901880F991F7D
:10143000820F931F0196880F991FFC01EF55FE4FF5
:1014400080819181009739F4E5E5F0E0A5E5B0E011
:101450008C918083BDC08981282F30E0C901880F1D
:10146000991F820F931F0196880F991FFC01EF555A
:10147000FE4F808191818230910541F4A5E5B0E075
:10148000E5E5F0E0808182608C93A2C0A5E5B0E044
:10149000E5E5F0E0808183608C939AC08981282FF4
:1014A00030E0C901880F991F820F931F880F991F81
:1014B000FC01EF55FE4F808191818130910509F04B
:1014C0005EC0ABE5B0E0EBE5F0E0808180688C9336
:1014D0008981282F30E0C901880F991F820F931F3F
:1014E0000196880F991FFC01EF55FE4F8081918175
:1014F0008130910541F4A5E5B0E0E5E5F0E08081BB
:1015000084608C9365C08981282F30E0C901880FE1
:10151000991F820F931F0196880F991FFC01EF55A9
:10152000FE4F80819181009739F4E5E5F0E0A5E573
:10153000B0E08C9180834CC08981282F30E0C901B4
:10154000880F991F820F931F0196880F991FFC0126
:10155000EF55FE4F808191818230910541F4A5E5E0
:10156000B0E0E5E5F0E0808188608C9331C0A5E5CE
:10157000B0E0E5E5F0E080818C608C9329C0ABE5BC
:10158000B0E0EBE5F0E0808180628C938981282FC8
:1015900030E0C901880F991F820F931F0196880FB1
:1015A000991FFC01EF55FE4F80819181823091059A
:1015B00041F4A4E5B0E0E4E5F0E080818F7B8C931A
:1015C00007C0A4E5B0E0E4E5F0E0808180648C939E
:1015D00028960FB6F894DEBF0FBECDBFCF91DF9136
:1015E00008951F920F920FB60F9211242F933F93DD
:1015F0004F935F936F937F938F939F93AF93BF931B
:10160000EF93FF93DF93CF93CDB7DEB7E091A501C2
:10161000F091A6010995CF91DF91FF91EF91BF91D4
:10162000AF919F918F917F916F915F914F913F917A
:101630002F910F900FBE0F901F9018951F920F9231
:101640000FB60F9211242F933F934F935F936F9395
:101650007F938F939F93AF93BF93EF93FF93DF930A
:10166000CF93CDB7DEB7E091AB01F091AC01099516
:10167000CF91DF91FF91EF91BF91AF919F918F91AA
:101680007F916F915F914F913F912F910F900FBE7E
:101690000F901F9018951F920F920FB60F92112462
:1016A0002F933F934F935F936F937F938F939F936A
:1016B000AF93BF93EF93FF93DF93CF93CDB7DEB795
:1016C000E091B101F091B2010995CF91DF91FF91C5
:1016D000EF91BF91AF919F918F917F916F915F91AA
:1016E0004F913F912F910F900FBE0F901F90189523
:1016F000DF93CF9300D0CDB7DEB781E090E09A833F
:101700008983A1E2B0E0E1E2F0E080818C7F8C93FC
:10171000E0E2F0E08FED8083A6E5B0E0E6E5F0E002
:10172000808184608C931A82198289819A810F90BA
:101730000F90CF91DF910895DF93CF9300D0CDB775
:10174000DEB781E090E09A838983E2E2F0E083E013
:101750008083A6E5B0E0E6E5F0E0808184608C93CC
:101760001A82198289819A810F900F90CF91DF910F
:101770000895DF93CF9300D0CDB7DEB781E090E03E
:101780009A838983A6E5B0E0E6E5F0E08081806297
:101790008C93A6E5B0E0E6E5F0E0808180688C936C
:1017A000E6E5F0E080818823DCF7E1E2F0E080818B
:1017B000882F90E0887F90708830910511F41A820C
:1017C000198289819A810F900F90CF91DF910895AE
:1017D000DF93CF9300D0CDB7DEB781E090E09A835E
:1017E0008983A6E5B0E0E6E5F0E0808180628C9335
:1017F000A6E5B0E0E6E5F0E0808180688C93E6E560
:10180000F0E080818823DCF7E1E2F0E08081882F3E
:1018100090E0887F90708031910511F41A821982CE
:1018200089819A810F900F90CF91DF910895DF9376
:10183000CF9300D0CDB7DEB781E090E09A83898363
:10184000A6E5B0E0E6E5F0E0808180618C93A6E556
:10185000B0E0E6E5F0E0808180688C931A8219821E
:1018600089819A810F900F90CF91DF910895DF9336
:10187000CF9300D000D0CDB7DEB78B836C8381E0EF
:1018800090E09A8389838B8188232CF0E3E2F0E057
:101890008B81880F80838C81823040F4A3E2B0E09A
:1018A000E3E2F0E090818C81892B8C93A6E5B0E097
:1018B000E6E5F0E080818F7D8C93A6E5B0E0E6E57B
:1018C000F0E0808180688C93E6E5F0E080818823F9
:1018D000DCF7E1E2F0E08081882F90E0887F907073
:1018E0008831910519F41A8219820CC0E1E2F0E006
:1018F0008081882F90E0887F90708034910511F46A
:101900001A82198289819A810F900F900F900F90FF
:10191000CF91DF910895DF93CF9300D0CDB7DEB79D
:1019200081E090E09A838983A6E5B0E0E6E5F0E007
:10193000808180648C93A6E5B0E0E6E5F0E08081EC
:1019400080688C93E6E5F0E080818823DCF7E1E2B3
:10195000F0E08081882F90E0887F9070803691053C
:1019600019F41A8219820CC0E1E2F0E08081882F1C
:1019700090E0887F9070883A910511F41A8219825C
:1019800089819A810F900F90CF91DF910895DF9315
:10199000CF9300D00F92CDB7DEB78B8381E090E07C
:1019A0009A838983E3E2F0E08B818083A6E5B0E04F
:1019B000E6E5F0E0808180688C93E6E5F0E08081E8
:1019C0008823DCF7E1E2F0E08081882F90E0887FD7
:1019D00090708832910511F41A82198289819A8156
:1019E0000F900F900F90CF91DF910895DF93CF93D9
:1019F00000D000D0CDB7DEB79C838B8381E090E030
:101A00009A838983A6E5B0E0E6E5F0E0808180680E
:101A10008C93E6E5F0E080818823DCF7E1E2F0E0FA
:101A20008081882F90E0887F90708038910541F404
:101A3000E3E2F0E08081EB81FC8180831A821982ED
:101A400089819A810F900F900F900F90CF91DF9125
:101A50000895DF93CF9300D0CDB7DEB781E090E05B
:101A60009A8389830E94780B9A83898389819A81DA
:101A70000F900F90CF91DF910895DF93CF9300D017
:101A8000CDB7DEB781E090E09A8389830E949C0BFA
:101A90009A83898389819A810F900F90CF91DF91EA
:101AA0000895DF93CF9300D000D00F92CDB7DEB76B
:101AB0009D838C8381E090E09B838A830E94B90B95
:101AC0009B838A83EC81FD819081EC81FD81818102
:101AD000980FEC81FD818281980FEC81FD818381DB
:101AE000980FEC81FD818481890FEC81FD818583D4
:101AF0008A819B81009771F581E060E00E94370C3C
:101B00009B838A838A819B810097F9F4198219C08B
:101B10008981282F30E08C819D81FC01E20FF31F29
:101B200080810E94C70C9B838A838A819B81009756
:101B300029F081E090E09B838A8310C089818F5FC8
:101B400089838981863020F309C081E090E09B83FE
:101B50008A8304C081E090E09B838A830E94170CF3
:101B60008A819B810F900F900F900F900F90CF91D3
:101B7000DF910895DF93CF9300D000D000D0CDB790
:101B8000DEB79E838D8381E090E09C838B830E94EF
:101B90008B0C9C838B831A828B819C810097E9F547
:101BA000198217C02D813E818981882F90E0820F94
:101BB000931F0E94F60C9C838B838B819C810097E2
:101BC00029F081E090E09C838B8306C089818F5F40
:101BD00089838981863030F3ED81FE819081ED81AA
:101BE000FE818181980FED81FE818281980FED81C8
:101BF000FE818381980FED81FE818481890F8A8324
:101C0000ED81FE8195818A81981719F41C821B82CF
:101C100004C081E090E09C838B838B819C8126961D
:101C20000FB6F894DEBF0FBECDBFCF91DF91089500
:101C3000DF93CF9300D000D0CDB7DEB79A838983EE
:101C40007C836B838B819C8190937D0180937C014D
:101C5000EB81FC818381813091F4E981FA8190816B
:101C6000EB81FC818281892BE981FA818083E98182
:101C7000FA8181818160E981FA8181830AC0E981E9
:101C8000FA819081EB81FC818281892BE981FA8143
:101C90008083E981FA819081EB81FC818581892BA8
:101CA000E981FA818083E981FA819081EB81FC816D
:101CB0008481892BE981FA818083E981FA8190818D
:101CC000EB81FC818181892BE981FA818083E98123
:101CD000FA819081EB81FC818081892BE981FA81F5
:101CE0008083EB81FC818681882389F0AFE5B0E0B9
:101CF000EFE5F0E0808180688C93E981FA81908142
:101D0000EB81FC818681892BE981FA818083E981DD
:101D1000FA8180818064E981FA8180830F900F903D
:101D20000F900F90CF91DF910895DF93CF9300D064
:101D3000CDB7DEB79A838983E981FA811082E98180
:101D4000FA8181818E7FE981FA818183AFE5B0E0FC
:101D5000EFE5F0E080818F778C930F900F90CF911B
:101D6000DF910895DF93CF9300D0CDB7DEB79A838C
:101D70008983E0917C01F0917D0180818031C9F4FB
:101D800087E390E064E041E00E94710887E390E01F
:101D900065E041E00E94710887E390E066E040E082
:101DA0000E94710887E390E067E041E00E947108BB
:101DB00018C087E390E064E040E00E94710887E388
:101DC00090E065E040E00E94710887E390E066E003
:101DD00041E00E94710887E390E067E040E00E94E4
:101DE00071080F900F90CF91DF910895DF93CF93FB
:101DF00000D000D000D0CDB7DEB79A8389837C8332
:101E00006B835E834D83EB81FC8180819181E981CD
:101E1000FA8182838D819E818130910529F4E98147
:101E2000FA8181818823DCF726960FB6F894DEBF0D
:101E30000FBECDBFCF91DF910895DF93CF9300D038
:101E400000D000D0CDB7DEB79A8389837C836B83C3
:101E50005E834D838D819E818130910529F4E981D6
:101E6000FA8181818823DCF7E981FA818281882FD8
:101E700090E0EB81FC819183808326960FB6F894E5
:101E8000DEBF0FBECDBFCF91DF910895DF93CF931B
:101E900000D000D000D0CDB7DEB79A8389837C8391
:101EA0006B835E834D83EB81FC8180819181E9812D
:101EB000FA8182838D819E818130910529F4E981A7
:101EC000FA8181818823DCF78D819E8181309105A3
:101ED00029F4E981FA8181818823DCF7E981FA819B
:101EE0008281882F90E0EB81FC819183808326960C
:101EF0000FB6F894DEBF0FBECDBFCF91DF9108952E
:101F00001F920F920FB60F9211242F933F934F936E
:101F10005F936F937F938F939F93AF93BF93EF9351
:101F2000FF93DF93CF93CDB7DEB7E0917C01F091C3
:101F30007D010780F085E02D0995CF91DF91FF911C
:101F4000EF91BF91AF919F918F917F916F915F9131
:101F50004F913F912F910F900FBE0F901F901895AA
:101F6000DF93CF9300D00F92CDB7DEB79A838983EA
:101F700089819A81009711F41B8211C089819A810D
:101F80008130910519F481E08B8309C089819A81A0
:101F90008230910519F482E08B8301C01B828B8112
:101FA0000F900F900F90CF91DF910895DF93CF9313
:101FB00000D000D00F92CDB7DEB78D838D81282F52
:101FC00030E0C901880F991F820F931F9C0136953D
:101FD000322F222737952795A901481B590BCA0193
:101FE000AA2797FDA095BA2F89839A83AB83BC83D8
:101FF00089819A81AB81BC8124E630E040E050E0E9
:10200000BC01CD010E94DA1DDA01C90180937F0174
:1020100089819A81AB81BC8124E630E040E050E0C8
:10202000BC01CD010E94DA1DDC01CB0189839A83BA
:10203000AB83BC8389819A81AB81BC81BA2FA92FE4
:10204000982F882724E630E040E050E0BC01CD0125
:102050000E94DA1DDA01C901819580938001809187
:102060007F010F900F900F900F900F90CF91DF9105
:102070000895DF93CF93CDB7DEB727970FB6F894C7
:10208000DEBF0FBECDBF9A838983E981FA8180814B
:1020900091810E94B00F80937E0180917E01482F34
:1020A00050E0CA01880F991F9C01220F331F220F95
:1020B000331F820F931F840F951F8D549E4F2981CC
:1020C0003A819C838B833E832D838BE08F83ED81CC
:1020D000FE8100808D819E8101969E838D83EB81A0
:1020E000FC8100828B819C8101969C838B839F81E4
:1020F00091509F83EF81EE2351F780917E018823D9
:1021000009F069C0A3E5B0E0E3E5F0E0608180910B
:102110007E01482F50E0CA01880F991F9C01220FB1
:10212000331F220F331F820F931F840F951FFC0153
:10213000EB54FE4F8081862B8C93A3E5B0E0E3E562
:10214000F0E0608180917E01482F50E0CA01880F45
:10215000991F9C01220F331F220F331F820F931FE1
:10216000840F951FFC01EA54FE4F8081862B8C93CF
:10217000A3E5B0E0E3E5F0E0608180917E01482FC7
:1021800050E0CA01880F991F9C01220F331F220FB4
:10219000331F820F931F840F951FFC01E954FE4FDC
:1021A0008081862B8C93A2E5B0E080917E01482F40
:1021B00050E0CA01880F991F9C01220F331F220F84
:1021C000331F820F931F840F951FFC01E854FE4FAD
:1021D00080818C938DC080917E01813009F488C00C
:1021E00080917E01823009F083C0A5E4B0E0E5E48F
:1021F000F0E0608180917E01482F50E0CA01880F95
:10220000991F9C01220F331F220F331F820F931F30
:10221000840F951FFC01EB54FE4F8081862B8C931D
:10222000A5E4B0E0E5E4F0E0608180917E01482F14
:1022300050E0CA01880F991F9C01220F331F220F03
:10224000331F820F931F840F951FFC01EA54FE4F2A
:102250008081862B8C93A5E4B0E0E5E4F0E060811A
:1022600080917E01482F50E0CA01880F991F9C0180
:10227000220F331F220F331F820F931F840F951FCE
:10228000FC01E954FE4F8081862B8C93A4E4B0E0DE
:1022900080917E01482F50E0CA01880F991F9C0150
:1022A000220F331F220F331F820F931F840F951F9E
:1022B000FC01E854FE4F80818C93A2E4B0E0E2E49C
:1022C000F0E0608180917E01482F50E0CA01880FC4
:1022D000991F9C01220F331F220F331F820F931F60
:1022E000840F951FFC01E754FE4F8081862B8C9351
:1022F00027960FB6F894DEBF0FBECDBFCF91DF910A
:102300000895DF93CF93CDB7DEB729970FB6F89432
:10231000DEBF0FBECDBF9A838983E981FA818081B8
:1023200091810E94B00F80937E0180917E0188236D
:1023300099F4E3E5F0E08081E3E5F0E01082E2E586
:10234000F0E08081E2E5F0E01082ECE5F0E08081F1
:10235000ECE5F0E0108220C080917E018130E1F058
:1023600080917E018230C1F4E5E4F0E08081E5E413
:10237000F0E01082E4E4F0E08081E4E4F0E0108238
:10238000E3E4F0E08081E3E4F0E01082E2E4F0E0F6
:102390008081E2E4F0E0108229960FB6F894DEBF67
:1023A0000FBECDBFCF91DF910895DF93CF9300D0C3
:1023B00000D0CDB7DEB79A83898389819A810E9444
:1023C000B00F80937E0180917E01882329F4E2E59D
:1023D000F0E080818B830EC080917E01813049F0D6
:1023E00080917E01823029F4E4E4F0E080818B83E7
:1023F00001C002C08B818C838C810F900F900F9055
:102400000F90CF91DF910895DF93CF9300D00F927B
:10241000CDB7DEB79A8389836B8389819A810E94C5
:10242000B00F80937E0180917E01882399F4ECE5C2
:10243000F0E08B818083AFE5B0E0EFE5F0E08081F4
:1024400080688C93A9E5B0E0E9E5F0E080818260E6
:102450008C931AC080917E018130B1F080917E0111
:10246000823091F4E3E4F0E08B818083AFE5B0E06B
:10247000EFE5F0E0808180688C93A9E5B0E0E9E5C4
:10248000F0E0808180688C930F900F900F90CF9137
:10249000DF910895DF93CF930F92CDB7DEB7909180
:1024A000730080917F01981729F481E08093730075
:1024B000198207C0809173008F5F8093730081E061
:1024C000898389810F90CF91DF910895DF93CF9316
:1024D00000D00F92CDB7DEB79A8389836B83898151
:1024E0009A810E94B00F80937E0180917E018823A3
:1024F00031F58B810E94D60F80937F0180917F01FF
:102500008F5F80937F01809180018093B801E2E525
:10251000F0E080918001808310928201109281010D
:10252000A9E5B0E0E9E5F0E0808181608C93AFE55A
:10253000B0E0EFE5F0E0808180688C932FC080915F
:102540007E01813059F180917E01823039F58B8195
:102550000E94D60F80937F0180917F018F5F8093CF
:102560007F01809180018093CE01E4E4F0E08091CE
:102570008001808382E090E09093820180938101CA
:10258000A9E5B0E0E9E5F0E0808180648C93AFE5F7
:10259000B0E0EFE5F0E0808180688C930F900F90C1
:1025A0000F90CF91DF910895DF93CF9300D00F92DA
:1025B000CDB7DEB79A8389836B830F900F900F900E
:1025C000CF91DF910895DF93CF9300D00F92CDB7D5
:1025D000DEB79A8389836B830F900F900F90CF9112
:1025E000DF9108951F920F920FB60F9211242F932F
:1025F0003F934F935F936F937F938F939F93AF938B
:10260000BF93EF93FF93DF93CF93CDB7DEB7E09106
:10261000BA01F091BB010995CF91DF91FF91EF9144
:10262000BF91AF919F918F917F916F915F914F91EA
:102630003F912F910F900FBE0F901F9018951F92F2
:102640000F920FB60F9211242F933F934F935F93E6
:102650006F937F938F939F93AF93BF93EF93FF936A
:10266000DF93CF93CDB7DEB7E091BC01F091BD0110
:102670000995CF91DF91FF91EF91BF91AF919F911C
:102680008F917F916F915F914F913F912F910F901B
:102690000FBE0F901F9018951F920F920FB60F92BA
:1026A00011242F933F934F935F936F937F938F9357
:1026B0009F93AF93BF93EF93FF93DF93CF93CDB7E8
:1026C000DEB7E091D001F091D1010995CF91DF9172
:1026D000FF91EF91BF91AF919F918F917F916F91FA
:1026E0005F914F913F912F910F900FBE0F901F90D0
:1026F00018951F920F920FB60F9211242F933F93AC
:102700004F935F936F937F938F939F93AF93BF93F9
:10271000EF93FF93DF93CF93CDB7DEB7E091D20174
:10272000F091D3010995CF91DF91FF91EF91BF9186
:10273000AF919F918F917F916F915F914F913F9159
:102740002F910F900FBE0F901F901895DF93CF938E
:10275000CDB7DEB729970FB6F894DEBF0FBECDBF59
:102760009C838B831A8219828B819C8124ED31E0BA
:102770003E832D8398878F833EE03987EF81F885EC
:1027800000802F8138852F5F3F4F38872F83ED8161
:10279000FE8100822D813E812F5F3F4F3E832D833E
:1027A0003985315039878985882341F7A0E4B0E025
:1027B000E0E4F0E080818F778C93E0E4F0E08091BA
:1027C000D6019091D701892F99278083E9E2F0E023
:1027D0008091D6019091D7018083ABE2B0E0EBE22B
:1027E000F0E080818D7F8C93A0E4B0E0E0E4F0E045
:1027F000808180688C938091D8018E3079F4A0E438
:10280000B0E0E0E4F0E0808186608C93AAE2B0E082
:10281000EAE2F0E0808184608C9310C0A0E4B0E034
:10282000E0E4F0E090818091D801892B8C93AAE2BA
:10283000B0E0EAE2F0E080818B7F8C93A0E4B0E02E
:10284000E0E4F0E090818091D501892B8C93A0E4A5
:10285000B0E0E0E4F0E090818091D901892B8C9385
:10286000A0E4B0E0E0E4F0E090818091DA01892B0F
:102870008C938091DB01882F90E00E942C15AAE2B6
:10288000B0E0EAE2F0E090818091D401892B8C9352
:1028900089819A8129960FB6F894DEBF0FBECDBF0D
:1028A000CF91DF910895DF93CF9300D0CDB7DEB7FE
:1028B0001A821982A0E4B0E0E0E4F0E08081806850
:1028C0008C93E0E4F0E086E88083EAE2F0E01082B6
:1028D000EBE2F0E0108289819A810F900F90CF9106
:1028E000DF910895DF93CF9300D0CDB7DEB71A8282
:1028F000198281E390E060E040E00E94710881E38A
:1029000090E061E041E00E94710889819A810F9016
:102910000F90CF91DF910895DF93CF9300D000D037
:1029200000D0CDB7DEB79C838B837E836D831A8204
:1029300019828B819C8190938401809383018D8186
:102940009E81009761F4EBE2F0E0808182958695AC
:102950008770882F90E0817090700097A1F380912C
:10296000D8018E3041F0ACE2B0E0EB81FC81808197
:1029700091818C931EC0EB81FC818081918180705C
:102980009170009741F0AAE2B0E0EAE2F0E08081C5
:1029900081608C9307C0AAE2B0E0EAE2F0E08081B7
:1029A0008E7F8C93ACE2B0E0EB81FC8180819181E1
:1029B0008C9389819A8126960FB6F894DEBF0FBE5C
:1029C000CDBFCF91DF910895DF93CF93CDB7DEB721
:1029D00029970FB6F894DEBF0FBECDBF9F838E83BD
:1029E0001D821C828E819F81009729F4EBE2F0E02A
:1029F00080818823DCF78091D8018E3041F0ECE2B1
:102A0000F0E08081282F30E03987288710C0EBE282
:102A1000F0E080818B83EAE2F0E080818A83ECE25F
:102A2000F0E0808189838FEF9FEF99878887888581
:102A3000998529960FB6F894DEBF0FBECDBFCF9112
:102A4000DF910895DF93CF9300D0CDB7DEB70F901D
:102A50000F90CF91DF910895DF93CF9300D000D0F6
:102A6000CDB7DEB79A83898389819A819C838B83D2
:102A70008B819C818330910509F480C08B819C817E
:102A80008430910560F48B819C8181309105E9F15E
:102A90008B819C818230910508F054C019C08B81D4
:102AA0009C818530910509F4A3C08B819C81853080
:102AB000910508F480C08B819C818630910509F4D2
:102AC000B4C08B819C818730910509F4CBC0DFC0F5
:102AD000AFE5B0E0EFE5F0E0808180688C93AAE29A
:102AE000B0E0EAE2F0E0808180688C93AAE2B0E096
:102AF000EAE2F0E080818F7B8C93AAE2B0E0EAE228
:102B0000F0E080818F7D8C93C2C0AFE5B0E0EFE54F
:102B1000F0E0808180688C93AAE2B0E0EAE2F0E025
:102B2000808180648C93AAE2B0E0EAE2F0E08081E8
:102B30008F778C93AAE2B0E0EAE2F0E080818F7DAB
:102B40008C93A5C0AFE5B0E0EFE5F0E08081806850
:102B50008C93AAE2B0E0EAE2F0E080818F778C9378
:102B6000AAE2B0E0EAE2F0E080818F7B8C93AAE2F7
:102B7000B0E0EAE2F0E0808180628C93AFE5B0E003
:102B8000EFE5F0E0808180688C93AAE2B0E0EAE2B1
:102B9000F0E0808180688C93AAE2B0E0EAE2F0E0A5
:102BA000808180648C93AAE2B0E0EAE2F0E0808168
:102BB0008F7D8C936CC0AFE5B0E0EFE5F0E08081F5
:102BC00080688C93AAE2B0E0EAE2F0E0808180685D
:102BD0008C93AAE2B0E0EAE2F0E0808180628C931C
:102BE000AAE2B0E0EAE2F0E080818F7B8C934FC0F4
:102BF000AFE5B0E0EFE5F0E0808180688C93AAE279
:102C0000B0E0EAE2F0E0808180648C93AAE2B0E078
:102C1000EAE2F0E0808180628C93AAE2B0E0EAE22E
:102C2000F0E080818F778C9332C0AFE5B0E0EFE5C4
:102C3000F0E0808180688C93AAE2B0E0EAE2F0E004
:102C4000808180688C93AAE2B0E0EAE2F0E08081C3
:102C500080648C93AAE2B0E0EAE2F0E080818062D6
:102C60008C9315C0AAE2B0E0EAE2F0E080818F77B1
:102C70008C93AAE2B0E0EAE2F0E080818F7B8C9353
:102C8000AAE2B0E0EAE2F0E080818F7D8C930F90C1
:102C90000F900F900F90CF91DF9108951F920F9298
:102CA0000FB60F9211242F933F934F935F936F931F
:102CB0007F938F939F93AF93BF93EF93FF93DF9394
:102CC000CF93CDB7DEB7E091DC01F091DD0109953E
:102CD000CF91DF91FF91EF91BF91AF919F918F9134
:102CE0007F916F915F914F913F912F910F900FBE08
:102CF0000F901F9018951F920F920FB60F921124EC
:102D00002F933F934F935F936F937F938F939F93F3
:102D1000AF93BF93EF93FF93DF93CF93CDB7DEB71E
:102D2000E091DC01F091DD010995CF91DF91FF91F8
:102D3000EF91BF91AF919F918F917F916F915F9133
:102D40004F913F912F910F900FBE0F901F901895AC
:102D50001F920F920FB60F9211242F933F934F9310
:102D60005F936F937F938F939F93AF93BF93EF93F3
:102D7000FF93DF93CF930F92CDB7DEB78AE28983BB
:102D8000CE01019660E070E00E948C14E091DC01BD
:102D9000F091DD0109950F90CF91DF91FF91EF91B7
:102DA000BF91AF919F918F917F916F915F914F9163
:102DB0003F912F910F900FBE0F901F901895DF93AA
:102DC000CF93CDB7DEB728970FB6F894DEBF0FBE0E
:102DD000CDBF0E943D0DCE0101960E94BA0D2896EE
:102DE0000FB6F894DEBF0FBECDBFCF91DF9108952F
:102DF000EF92FF920F931F937B018C0120E030E054
:102E000040E05FE40E94A41A88238CF0C801B70157
:102E100020E030E040E05FE40E9470180E94041B54
:102E20009B01AC01205030404040504806C0C801D2
:102E3000B7010E94041B9B01AC01B901CA011F919B
:102E40000F91FF90EF900895A0E0B0E0EAE2F7E183
:102E50000C94FC1DDC012B01FA019C91923008F4CA
:102E600039C1EB018881823008F433C1943069F4B0
:102E7000843009F02FC111969C9111978981981780
:102E800009F428C1A4E7B0E025C1843009F421C1C8
:102E90008230A9F4923009F01DC19A01AD0188E099
:102EA000EA010990AE01E90109929E018150C1F742
:102EB000E201898111969C918923818308C1923016
:102EC00009F407C112962D903C901397EB018A816B
:102ED0009B811496AD90BD90CD90DC901797EC80BF
:102EE000FD800E811F819101281B390BB90137FF2D
:102EF00004C066277727621B730B603271050CF0E4
:102F000061C0121613066CF537014801062E04C085
:102F100096948794779467940A94D2F721E030E0EE
:102F200040E050E004C0220F331F441F551F6A9534
:102F3000D2F721503040404050402E213F214023C5
:102F40005123211531054105510521F021E030E0E3
:102F500040E050E079018A01E628F728082919297C
:102F60003CC0232BD1F1260E371E35014601062E1B
:102F700004C096948794779467940A94D2F721E0DA
:102F800030E040E050E004C0220F331F441F551FC3
:102F90006A95D2F721503040404050402A213B21D1
:102FA0004C215D21211531054105510521F021E01C
:102FB00030E040E050E059016A01A628B728C8284F
:102FC000D9280BC0821593052CF01C01AA24BB2420
:102FD000650103C0EE24FF24870111969C91D20164
:102FE00011968C91981709F445C0992339F0A801DE
:102FF00097012A193B094C095D0906C0A6019501F4
:103000002E193F09400B510B57FD08C01182338226
:10301000228224833583468357831DC081E08183C8
:103020003382228288279927DC01821B930BA40B11
:10303000B50B84839583A683B7830DC0220F331FFE
:10304000441F551F24833583468357838281938190
:103050000197938382832481358146815781DA01E8
:10306000C9010197A109B1098F5F9F4FAF4FBF43BE
:1030700028F30BC0918333822282EA0CFB1C0C1DC7
:103080001D1DE482F5820683178383E080832481FB
:1030900035814681578157FF1AC0C901AA2797FD7C
:1030A000A095BA2F81709070A070B070569547951A
:1030B00037952795822B932BA42BB52B848395834F
:1030C000A683B78382819381019693838283DF01F4
:1030D00001C0D201CD01CDB7DEB7E2E10C94181EDC
:1030E000A0E2B0E0E6E7F8E10C94081E69837A8379
:1030F0008B839C832D833E834F835887E9E0EE2E9C
:10310000F12CEC0EFD1ECE010196B7010E94F51CBC
:103110008E010F5E1F4FCE010596B8010E94F51C6F
:103120008A8991E089278A8BC701B801AE01475E81
:103130005F4F0E9424170E94201CA096E6E00C948A
:10314000241EA0E2B0E0E7EAF8E10C94081E6983CF
:103150007A838B839C832D833E834F835887F9E04A
:10316000EF2EF12CEC0EFD1ECE010196B7010E9450
:10317000F51C8E010F5E1F4FCE010596B8010E940F
:10318000F51CC701B801AE01475E5F4F0E942417CE
:103190000E94201CA096E6E00C94241EA0E2B0E061
:1031A000E4EDF8E10C94FC1D69837A838B839C83A6
:1031B0002D833E834F835887CE010196BE01675F02
:1031C0007F4F0E94F51CCE010596BE016F5E7F4FBA
:1031D0000E94F51C9985923088F089898230C8F068
:1031E000943019F4823051F404C0843029F49230C0
:1031F00081F484E790E0C6C0923049F420E09A85DB
:103200008A89981321E02A87CE010996BBC08230B3
:1032100049F420E09A858A89981321E02A8BCE010F
:103220004196B0C02D843E844F8458886D887E8836
:103230008F88988CEE24FF248701AA24BB24650183
:1032400040E050E060E070E0E0E0F0E0C10181705B
:103250009070892BE9F0E60CF71C081D191D9A01E6
:10326000AB012A0D3B1D4C1D5D1D80E090E0A0E0F0
:10327000B0E0E614F7040805190520F481E090E0B9
:10328000A0E0B0E0BA01A901480F591F6A1F7B1FD7
:10329000AA0CBB1CCC1CDD1C97FE08C081E090E092
:1032A000A0E0B0E0A82AB92ACA2ADB2A3196E03287
:1032B000F10549F0660C771C881C991C56944794BC
:1032C00037942794C3CFFA85EA892B893C898B856B
:1032D0009C85280F391F2E5F3F4F17C0CA01817090
:1032E0009070892B61F016950795F794E79480E02C
:1032F00090E0A0E0B0E8E82AF92A0A2B1B2B76958B
:103300006795579547952F5F3F4F77FDE7CF0CC0E7
:10331000440F551F661F771F17FD4160EE0CFF1C01
:10332000001F111F21503040403090E0590790E0BD
:10333000690790E4790760F32B8F3C8FDB01CA01AA
:103340008F779070A070B07080349105A105B105A1
:1033500061F447FD0AC0E114F1040105110529F0EB
:10336000405C5F4F6F4F7F4F40781A8EFE1711F011
:1033700081E08A8F4D8F5E8F6F8F78A383E0898F76
:10338000CE0149960E94201CA096E2E10C94181EE2
:10339000A8E1B0E0EEECF9E10C94041E69837A83B5
:1033A0008B839C832D833E834F835887B9E0EB2E1C
:1033B000F12CEC0EFD1ECE010196B7010E94F51C0A
:1033C0008E010F5E1F4FCE010596B8010E94F51CBD
:1033D0002985223008F47EC03989323010F4B801D2
:1033E0007CC08A859A8989278A87243011F0223007
:1033F00031F4231709F06EC064E770E06EC034301A
:1034000039F41D861E861F86188A1C861B8604C0FA
:10341000323021F484E08987B7015FC02B853C8579
:103420008B899C89281B390B3C872B87ED84FE8474
:103430000F851889AD88BE88CF88D88CEA14FB0424
:103440000C051D0540F4EE0CFF1C001F111F215040
:1034500030403C872B8720E030E040E050E080E0C7
:1034600090E0A0E0B0E460E070E0EA14FB040C053A
:103470001D0540F0282B392B4A2B5B2BEA18FB0843
:103480000C091D09B695A79597958795EE0CFF1C1D
:10349000001F111F6F5F7F4F6F31710531F7DA0128
:1034A000C9018F779070A070B07080349105A1052C
:1034B000B10561F427FD0AC0E114F104010511050D
:1034C00029F0205C3F4F4F4F5F4F20782D873E877C
:1034D0004F87588BBE01675F7F4FCB010E94201C36
:1034E0006896EAE00C94201EA8E1B0E0EAE7FAE171
:1034F0000C94081E69837A838B839C832D833E837F
:103500004F83588789E0E82EF12CEC0EFD1ECE018A
:103510000196B7010E94F51C8E010F5E1F4FCE0170
:103520000596B8010E94F51C8985823040F0898992
:10353000823028F0C701B8010E946D1D01C08FEFD5
:103540006896E6E00C94241EA8E1B0E0EAEAFAE10D
:103550000C94081E69837A838B839C832D833E831E
:103560004F83588789E0E82EF12CEC0EFD1ECE012A
:103570000196B7010E94F51C8E010F5E1F4FCE0110
:103580000596B8010E94F51C8985823040F0898932
:10359000823028F0C701B8010E946D1D01C08FEF75
:1035A0006896E6E00C94241EA8E1B0E0EAEDFAE1AA
:1035B0000C94081E69837A838B839C832D833E83BE
:1035C0004F83588789E0E82EF12CEC0EFD1ECE01CA
:1035D0000196B7010E94F51C8E010F5E1F4FCE01B0
:1035E0000596B8010E94F51C8985823040F08989D2
:1035F000823028F0C701B8010E946D1D01C081E032
:103600006896E6E00C94241EACE0B0E0EAE0FBE152
:103610000C940C1E69837A838B839C83CE01019664
:10362000BE016B5F7F4F0E94F51C8D81823061F17E
:10363000823050F1843021F48E81882351F12EC0E4
:103640002F81388537FD20C06E812F3131051CF068
:103650006623F9F023C08EE190E0821B930B29854D
:103660003A854B855C8504C05695479537952795D7
:103670008A95D2F76623B1F0509540953095219503
:103680003F4F4F4F5F4F0EC020E030E040E050E032
:1036900009C02FEF3FEF4FEF5FE704C020E030E0BD
:1036A00040E050E8B901CA012C96E2E00C94281ED3
:1036B000A8E0B0E0EEE5FBE10C94041E7B018C0178
:1036C000611571058105910519F482E0898360C057
:1036D00083E089838EE1C82ED12CDC82CB82ED82FF
:1036E000FE820F831887C801B7010E94D11BFC011D
:1036F0003197F7FF3BC0222733272E1B3F0B570183
:103700006801022E04C0D694C794B794A7940A9473
:10371000D2F740E050E060E070E081E090E0A0E0AF
:10372000B0E004C0880F991FAA1FBB1F2A95D2F7CB
:103730000197A109B1098E219F21A023B1230097F0
:10374000A105B10521F041E050E060E070E04A29B8
:103750005B296C297D294D835E836F8378878EE199
:1037600090E08E1B9F0B9C838B8312C0309781F05F
:103770000E2E04C0EE0CFF1C001F111F0A94D2F77E
:10378000ED82FE820F831887CE1ADF0ADC82CB829D
:103790001A82CE0101960E94201C2896EAE00C9421
:1037A000201EEF92FF920F931F937B018C0180E00C
:1037B000E81680E0F80681E0080780E0180788F442
:1037C0008FEFE816F1040105110531F028F088E0CB
:1037D00090E0A0E0B0E017C080E090E0A0E0B0E0B2
:1037E00012C080E0E81680E0F80680E0080781E07B
:1037F000180728F088E190E0A0E0B0E004C080E184
:1038000090E0A0E0B0E020E230E040E050E0281B93
:10381000390B4A0B5B0B04C016950795F794E79498
:103820008A95D2F7F701E458FF4F8081281B3109B0
:1038300041095109C9011F910F91FF90EF9008951F
:10384000DF92EF92FF920F931F93FC01E480F580CB
:1038500006811781D1808081823048F480E090E039
:10386000A0E1B0E0E82AF92A0A2B1B2BA5C084307E
:1038700009F49FC0823021F4EE24FF24870105C0A3
:10388000E114F1040105110519F4E0E0F0E096C03F
:10389000628173819FEF623879070CF05BC022E888
:1038A0003FEF261B370B2A3131052CF020E030E0AA
:1038B00040E050E02AC0B801A701022E04C076956E
:1038C0006795579547950A94D2F781E090E0A0E07C
:1038D000B0E004C0880F991FAA1FBB1F2A95D2F71A
:1038E0000197A109B1098E219F21A023B12300973F
:1038F000A105B10521F081E090E0A0E0B0E09A01DF
:10390000AB01282B392B4A2B5B2BDA01C9018F77AE
:103910009070A070B07080349105A105B10539F4A4
:1039200027FF09C0205C3F4F4F4F5F4F04C0215C11
:103930003F4F4F4F5F4FE0E0F0E02030A0E03A070C
:10394000A0E04A07A0E45A0710F0E1E0F0E07901B6
:103950008A0127C06038710564F5FB01E158FF4F0B
:10396000D801C7018F779070A070B0708034910536
:10397000A105B10539F4E7FE0DC080E490E0A0E0B8
:10398000B0E004C08FE390E0A0E0B0E0E80EF91EE4
:103990000A1F1B1F17FF05C016950795F794E7949C
:1039A000319687E016950795F794E7948A95D1F7B5
:1039B00005C0EE24FF248701EFEFF0E06E2F67953E
:1039C00066276795902F9F77D794DD24D7948E2F05
:1039D0008695492F462B582F5D29B701CA011F91A3
:1039E0000F91FF90EF90DF900895FC01DB01408183
:1039F00051812281622F6F7770E0221F2227221FC0
:103A00009381892F880F822B282F30E0991F9927C7
:103A1000991F11969C93119721153105A9F5411510
:103A200051056105710511F482E037C082E89FEF0E
:103A300013969C938E9312979A01AB0167E0220F25
:103A4000331F441F551F6A95D1F783E08C930DC037
:103A5000220F331F441F551F12968D919C9113976F
:103A6000019713969C938E931297203080E038072D
:103A700080E0480780E4580758F314962D933D934F
:103A80004D935C93179708952F3F310579F44115B5
:103A900051056105710519F484E08C93089564FF64
:103AA00003C081E08C9312C01C9210C02F5730408D
:103AB00013963C932E93129783E08C9387E0440FE8
:103AC000551F661F771F8A95D1F7706414964D9322
:103AD0005D936D937C93179708951F93DC01FB0111
:103AE0009C91923008F447C08081823008F443C032
:103AF000943051F411961C91843099F58181682F8E
:103B000070E0611B71093FC0843021F0923031F4C4
:103B10008230B9F18181882389F12DC011961C91E1
:103B200011978230F1F081811817D9F412962D91F6
:103B30003C911397828193818217930794F0281701
:103B40003907BCF014968D919D910D90BC91A02DDC
:103B50002481358146815781281739074A075B0739
:103B600018F4112341F00AC082179307A407B50780
:103B700040F4112319F061E070E005C06FEF7FEFB2
:103B800002C060E070E0CB011F910895AA1BBB1B2F
:103B900051E107C0AA1FBB1FA617B70710F0A61B4D
:103BA000B70B881F991F5A95A9F780959095BC016E
:103BB000CD010895A1E21A2EAA1BBB1BFD010DC069
:103BC000AA1FBB1FEE1FFF1FA217B307E407F507CD
:103BD00020F0A21BB30BE40BF50B661F771F881FA9
:103BE000991F1A9469F760957095809590959B013F
:103BF000AC01BD01CF0108952F923F924F925F9289
:103C00006F927F928F929F92AF92BF92CF92DF92EC
:103C1000EF92FF920F931F93CF93DF93CDB7DEB751
:103C2000CA1BDB0B0FB6F894DEBF0FBECDBF0994E5
:103C30002A88398848885F846E847D848C849B843C
:103C4000AA84B984C884DF80EE80FD800C811B814A
:103C5000AA81B981CE0FD11D0FB6F894DEBF0FBE79
:103C6000CDBFED010895AEE0B0E0E9E3FEE10C94D4
:103C70000A1E0D891E8986E08C831A8309838FEFC3
:103C80009FE79E838D839E01275E3F4FCE01019665
:103C90006F89788DA9010E94571E2F813885020FE8
:103CA000131FF80110822E96E4E00C94261EABE060
:103CB000B0E0EDE5FEE10C94FC1D3C012B015A0146
:103CC000FC0117821682838181FD03C06FEF7FEFB5
:103CD000C6C19AE0892E1E010894211C311CF301F3
:103CE0002381F20123FD859123FF81912F018823F8
:103CF00009F4B2C1853239F423FD859123FF819106
:103D00002F01853229F490E0B3010E944A20E7CFC9
:103D1000982FFF24EE249924FFE1FF15D0F09B3269
:103D200069F09C3228F4903259F0933291F40EC02D
:103D30009D3249F0903369F441E024C052E0F52A05
:103D400084E0F82A28C098E0F92A25C0E0E1FE2A9C
:103D500022C0F7FC29C0892F80538A3070F4F6FE08
:103D600005C0989C902C1124980E15C0E89CE02C5E
:103D70001124E80EF0E2FF2A0EC09E3229F4F6FC70
:103D80006BC140E4F42A07C09C3619F450E8F52AC8
:103D900002C0983649F4F20123FD959123FF9191D9
:103DA0002F01992309F0B8CF892F8554833018F05B
:103DB0008052833038F444E050E0A40EB51E5FE337
:103DC00059830FC0933631F0933779F0933509F06A
:103DD00056C020C0F5018081898342E050E0A40EE6
:103DE000B51E610101E010E012C0F501C080D18074
:103DF000F6FC03C06FEF7FEF02C0692D70E042E078
:103E000050E0A40EB51EC6010E943F208C015FE762
:103E1000F52214C0F501C080D180F6FC03C06FEF1D
:103E20007FEF02C0692D70E042E050E0A40EB51EA5
:103E3000C6010E9434208C0150E8F52AF3FE07C029
:103E40001AC080E290E0B3010E944A20EA948E2DCD
:103E500090E008171907A8F30EC0F601F7FC85914A
:103E6000F7FE81916F0190E0B3010E944A20E110BA
:103E7000EA94015010400115110579F7EAC0943613
:103E800011F0993669F5F7FE08C0F50120813181FE
:103E90004281538184E090E00AC0F50180819181E4
:103EA0009C01442737FD4095542F82E090E0A80EF6
:103EB000B91E9FE6F92257FF09C0509540953095ED
:103EC00021953F4F4F4F5F4FE0E8FE2ACA01B901ED
:103ED000A1012AE030E00E947620D82ED21840C0FE
:103EE000953729F41F2D1F7E2AE030E01DC01F2DBD
:103EF000197F9F3661F0903720F4983509F0ACC0F7
:103F00000FC0903739F0983709F0A6C004C028E0F8
:103F100030E00AC0106114FD146020E130E004C0FC
:103F200014FD166020E132E017FF08C0F501608142
:103F300071818281938144E050E008C0F501808165
:103F40009181BC0180E090E042E050E0A40EB51EFB
:103F5000A1010E947620D82ED2188FE7F82EF122E8
:103F6000F6FE0BC05EEFF522D91438F4F4FE07C05C
:103F7000F2FC05C08FEEF82202C01D2D01C0192DE4
:103F8000F4FE0DC0FE01ED0DF11D8081803319F4AA
:103F900099EEF92208C01F5FF2FE05C003C08F2D05
:103FA000867809F01F5F0F2DF3FC14C0F0FE0FC0E0
:103FB0001E1510F09D2C0BC09D2C9E0C911A1E2DD1
:103FC00006C080E290E0B3010E944A201F5F1E15E8
:103FD000C0F304C01E1510F4E11A01C0EE2404FF62
:103FE0000FC080E390E0B3010E944A2002FF1DC091
:103FF00001FD03C088E790E00EC088E590E00BC0AB
:10400000802F867891F001FF02C08BE201C080E230
:10401000F7FC8DE290E0B3010E944A2006C080E3E5
:1040200090E0B3010E944A209A94D914C0F3DA9424
:10403000F101ED0DF11D808190E0B3010E944A2055
:10404000DD20A9F706C080E290E0B3010E944A207B
:10405000EA94EE20C1F743CEF30166817781CB016C
:104060002B96E2E10C94181EFC0105906150704003
:104070000110D8F7809590958E0F9F1F0895FC0131
:104080006150704001900110D8F7809590958E0F87
:104090009F1F08950F931F93CF93DF938C01EB0124
:1040A0008B8181FF1BC082FF0DC02E813F818C81DF
:1040B0009D812817390764F4E881F9810193F98318
:1040C000E88306C0E885F985802F0995892B31F4AE
:1040D0008E819F8101969F838E8302C00FEF1FEF19
:1040E000C801DF91CF911F910F910895FA01AA277E
:1040F000283051F1203181F1E8946F936E7F6E5F2B
:104100007F4F8F4F9F4FAF4FB1E03ED0B4E03CD0D8
:10411000670F781F891F9A1FA11D680F791F8A1FBB
:10412000911DA11D6A0F711D811D911DA11D20D022
:1041300009F468943F912AE0269F11243019305DDC
:104140003193DEF6CF010895462F4770405D4193CD
:10415000B3E00FD0C9F7F6CF462F4F70405D4A331A
:1041600018F0495D31FD4052419302D0A9F7EACFE2
:10417000B4E0A6959795879577956795BA95C9F711
:1041800000976105710508959B01AC010A2E069404
:104190005795479537952795BA95C9F7620F731FBD
:0C41A000841F951FA01D0895F894FFCF08
:1041AC0000000100020003000400050006000700E7
:1041BC002564000100000000000000000001020264
:1041CC0003030303040404040404040405050505A3
:1041DC00050505050505050505050505060606067F
:1041EC000606060606060606060606060606060663
:1041FC00060606060606060606060606070707074F
:10420C000707070707070707070707070707070732
:10421C000707070707070707070707070707070722
:10422C000707070707070707070707070707070712
:10423C0007070707070707070707070708080808FE
:10424C0008080808080808080808080808080808E2
:10425C0008080808080808080808080808080808D2
:10426C0008080808080808080808080808080808C2
:10427C0008080808080808080808080808080808B2
:10428C0008080808080808080808080808080808A2
:10429C000808080808080808080808080808080892
:1042AC000808080808080808080808080808080882
:0C42BC0008080808080808080808080896
:00000001FF
