:100000000C942A000C94A7000C94CE000C94F500DC
:100010000C946A010C9491010C9447000C944700D5
:100020000C9447000C9447000C941C010C94430161
:100030000C9447000C9447000C9447000C94470024
:100040000C9447000C9447000C9447000C94470014
:100050000C94470011241FBECFE5D8E0DEBFCDBF12
:1000600010E0A0E6B0E0E4E7F3E002C005900D92F6
:10007000A036B107D9F720E0A0E6B0E001C01D929C
:10008000AA38B207E1F70E9449000C94B8010C9419
:10009000000041E064E081E390E00E94710064E0D0
:1000A00082E390E00E949A0064E082E390E00E9484
:1000B0008E002FEB87E299E0215080409040E1F7DD
:1000C00000C0000064E082E390E00E949A002FEB01
:1000D00087E299E0215080409040E1F700C00000A5
:1000E000E3CF413061F421E030E002C0220F331F42
:1000F0006A95E2F7FC013081232B2083089541119A
:100100000CC021E030E002C0220F331F6A95E2F7F5
:100110002095FC01308123232083089521E030E0E5
:1001200002C0220F331F6A95E2F7FC013081232BB6
:100130002083089521E030E002C0220F331F6A952A
:10014000E2F72095FC0130812323208308951F923C
:100150000F920FB60F9211242F933F934F935F93FB
:100160006F937F938F939F93AF93BF93EF93FF937F
:10017000E0916200F09163000995FF91EF91BF91CA
:10018000AF919F918F917F916F915F914F913F912F
:100190002F910F900FBE0F901F9018951F920F92E6
:1001A0000FB60F9211242F933F934F935F936F934A
:1001B0007F938F939F93AF93BF93EF93FF93E091C0
:1001C0006600F09167000995FF91EF91BF91AF91A3
:1001D0009F918F917F916F915F914F913F912F915F
:1001E0000F900FBE0F901F9018951F920F920FB691
:1001F0000F9211242F933F934F935F936F937F93AD
:100200008F939F93AF93BF93EF93FF93E0916A0017
:10021000F0916B000995FF91EF91BF91AF919F9184
:100220008F917F916F915F914F913F912F910F909F
:100230000FBE0F901F9018951F920F920FB60F923E
:1002400011242F933F934F935F936F937F938F93DB
:100250009F93AF93BF93EF93FF93E0917200F09160
:1002600073000995FF91EF91BF91AF919F918F918D
:100270007F916F915F914F913F912F910F900FBEA2
:100280000F901F9018951F920F920FB60F92112486
:100290002F933F934F935F936F937F938F939F938E
:1002A000AF93BF93EF93FF93E0917400F0917500CB
:1002B0000995FF91EF91BF91AF919F918F917F91A0
:1002C0006F915F914F913F912F910F900FBE0F90C3
:1002D0001F9018951F920F920FB60F9211242F9313
:1002E0003F934F935F936F937F938F939F93AF93BE
:1002F000BF93EF93FF93E0918600F09187000995FB
:10030000FF91EF91BF91AF919F918F917F916F91ED
:100310005F914F913F912F910F900FBE0F901F90C3
:1003200018951F920F920FB60F9211242F933F939F
:100330004F935F936F937F938F939F93AF93BF93ED
:10034000EF93FF93E0918800F09189000995FF9168
:10035000EF91BF91AF919F918F917F916F915F913D
:100360004F913F912F910F900FBE0F901F901895B6
:04037000F894FFCF2F
:00000001FF
